:020000040800F2
:100000007806002089010008650500085D050008E4
:10001000610500083D040008610B000800000000B5
:100020000000000000000000000000003D07000884
:1000300041040008000000000D06000895080008B3
:10004000A3010008A3010008A3010008A301000800
:10005000A3010008A3010008A3010008A3010008F0
:10006000A3010008A3010008A3010008A3010008E0
:10007000A3010008A3010008A3010008A3010008D0
:10008000A3010008A3010008A3010008A3010008C0
:10009000A3010008A3010008A3010008A3010008B0
:1000A000A3010008A3010008A3010008A3010008A0
:1000B000A3010008A3010008A3010008A301000890
:1000C000A3010008A3010008A3010008A301000880
:1000D000A3010008A3010008A3010008A301000870
:1000E000A3010008A3010008A301000800F002F822
:1000F00000F03AF80AA090E8000C82448344AAF188
:100100000107DA4501D100F02FF8AFF2090EBAE885
:100110000F0013F0010F18BFFB1A43F0010318473B
:10012000C00A0000E00A0000103A24BF78C878C175
:10013000FAD8520724BF30C830C144BF04680C60ED
:10014000704700000023002400250026103A28BF35
:1001500078C1FBD8520728BF30C148BF0B60704739
:100160001FB51FBD10B510BD00F031F81146FFF7E7
:10017000F7FF00F01BFD00F04FF803B4FFF7F2FFAC
:1001800003BC00F057F800000948804709480047C1
:10019000FEE7FEE7FEE7FEE7FEE7FEE7FEE7FEE737
:1001A000FEE7FEE704480549054A064B7047000094
:1001B00099080008ED00000878000020780600206B
:1001C000780200207802002070477047704775461B
:1001D00000F02CF8AE4605006946534620F00700B3
:1001E000854618B020B5FFF7DDFFBDE820404FF091
:1001F00000064FF000074FF000084FF0000B21F011
:100200000701AC46ACE8C009ACE8C009ACE8C009DD
:10021000ACE8C0098D46704710B50446AFF30080C6
:100220002046BDE81040FFF7A8BF00000048704717
:100230001400002001491820ABBEFEE72600020092
:10024000704721B1826842F00102826003E0826857
:1002500022F0010282607047014600208A6802F0A5
:1002600004020AB1012000E000207047014600208E
:100270008A6802F008020AB1012000E000207047FD
:1002800030B502460020002350680F4C20400D7905
:100290000C6844EA05242043506090680B4C2040D1
:1002A000D1E902542C434D7944EA4504204390603F
:1002B000D06A20F470000C7C641EE4B2234340EA50
:1002C0000350D06230BD0000FFFEF0FFFDF7F1FFEC
:1002D000F0B504460D4600200021092D11DDE0682F
:1002E000A5F10A0606EB4607072606FA07F188433A
:1002F000A5F10A0606EB460603FA06F10843E0609C
:100300000CE0206905EB4507072606FA07F188434C
:1003100005EB450603FA06F108432061072A0FDAC8
:10032000606B561E06EB86071F2606FA07F1884308
:10033000561E06EB860605FA06F10843606322E0C6
:100340000D2A0FDA206BD61F06EB86071F2606FA4A
:1003500007F18843D61F06EB860605FA06F1084327
:10036000206310E0E06AA2F10D0606EB86071F2667
:1003700006FA07F18843A2F10D0606EB860605FA98
:1003800006F10843E062F0BD816841F00801816038
:100390007047816841F004018160704700B587B003
:1003A0000121480200F050F90121042000F04CF92D
:1003B0004FF4004000F02CF900208DF81B00402085
:1003C000ADF8180003208DF81A0006A9194800F0AE
:1003D00038F80523012206211748FFF779FF00208E
:1003E000019004904FF46020039000208DF80900E4
:1003F0008DF8080001208DF8140001A90E48FFF7C0
:100400003FFF01210C48FFF71CFF0B48FFF7BCFF23
:1004100000BF0948FFF72AFF0128FAD00648FFF776
:10042000B8FF00BF0448FFF717FF0128FAD007B054
:1004300000BD0000000801400024014000BFFEE7AD
:1004400070472DE9F04102460025002600200023D8
:100450000024002791F803C00CF00F0591F803C0A9
:100460000CF0100CBCF1000F03D091F802C04CEA64
:10047000050591F800C0BCF1000F31D014680020D0
:100480002BE04FF0010C0CFA00F3B1F800C00CEABD
:1004900003069E4220D183004FF00F0C0CFA03F7A5
:1004A000BC4305FA03FC4CEA040491F803C0BCF118
:1004B000280F06D14FF0010C0CFA00FCC2F814C052
:1004C0000AE091F803C0BCF1480F05D14FF0010CD0
:1004D0000CFA00FCC2F810C0401C0828D1D31460EC
:1004E000B1F800C0BCF1FF0F34DD546800202EE0ED
:1004F00000F1080C4FF0010808FA0CF3B1F800C045
:100500000CEA03069E4221D183004FF00F0C0CFA37
:1005100003F7BC4305FA03FC4CEA040491F803C05A
:10052000BCF1280F05D100F1080C08FA0CF8C2F84C
:10053000148091F803C0BCF1480F07D100F1080CFA
:100540004FF0010808FA0CF8C2F81080401C082887
:10055000CED35460BDE8F0810161704700BFFEE773
:1005600000BFFEE77047000000B589B001210846D2
:1005700000F05AF80121042000F066F818208DF8E8
:1005800023000120ADF8200003208DF8220008A9E7
:100590001948FFF756FF4FF0804000F0B9F90020EE
:1005A000ADF81A00ADF816004F20ADF8180008207D
:1005B000ADF8140000208DF81C0005A94FF0804014
:1005C00000F004FA01A800F0F5F96020ADF804008D
:1005D0000020ADF80C000120ADF806000020ADF8B9
:1005E0000A0001A94FF0804000F098F90121880726
:1005F00000F082F909B000BD0008014010B50446C2
:1006000021464FF0804000F0DFF910BD7047000038
:1006100001460020034A506820F4404008435060DF
:10062000704700000010024029B1064AD269024317
:10063000044BDA6104E0034AD2698243014BDA6178
:10064000704700000010024029B1064A9269024337
:10065000044B9A6104E0034A92698243014B9A6118
:10066000704700000010024030B500210022002435
:1006700000232D4D6D6805F00C0121B1042905D032
:10068000082923D105E0294D056022E0274D0560AA
:100690001FE0254D6D6805F47012234D6D6805F45B
:1006A0008034022505EB92421CB9214D554305606B
:1006B0000BE01D4D6D6805F400351DB11C4D554313
:1006C000056002E0194D5543056002E0174D0560D5
:1006D00000BF00BF144D6D6805F0F0010909154D0C
:1006E0006B5C0568DD4045600F4D6D6805F4E061A9
:1006F000090A104D6B5C4568DD4085600A4D6D68E8
:1007000005F46051C90A0B4D6B5C4568DD40C5605E
:10071000054D6D6805F44041890B074D6B5CC5685C
:10072000B5FBF3F5056130BD0010024000127A0000
:1007300000093D000000002010000020704700006C
:1007400000B585B001218803FFF77EFF0121042059
:10075000FFF77AFF18208DF813004FF40070ADF802
:10076000100003208DF8120004A90E48FFF769FE5F
:100770004FF4165000900020ADF80C000820ADF8A2
:100780000A000020ADF80800ADF80600ADF804003E
:100790006946054800F078F90121034800F068F93E
:1007A00005B000BD000801400038014010B500F060
:1007B00001F810BD0CB5002001900090334800688E
:1007C00040F480303149086000BF3048006800F4D0
:1007D000003000900198401C0190009818B90198D1
:1007E000B0F5A06FF1D12948006800F4003010B1D5
:1007F0000120009001E0002000900098012843D1E2
:100800002348006840F0100021490860084600684D
:1008100020F0030008600846006840F0020008600D
:100820001A484068194948600846406848600846C8
:10083000406840F4806048600846406820F47C10BE
:1008400048600846406840F4E81048600846006880
:1008500040F08070086000BF0C48006800F0007035
:100860000028F9D00948406820F003000749486093
:100870000846406840F00200486000BF03484068F6
:1008800000F00C000828F9D10CBD00000010024057
:10089000002002407047000010B51348006840F087
:1008A00001001149086008464068104908400E4997
:1008B0004860084600680E4908400B490860084631
:1008C000006820F4802008600846406820F4FE009C
:1008D00048604FF41F008860FFF768FF4FF000602A
:1008E0000449086010BD0000001002400000FFF83D
:1008F000FFFFF6FE08ED00E021B1028842F00102A0
:10090000028004E002884FF6FE731A4002807047AE
:1009100001894FF6F87211400181704770B50024CB
:1009200000220023058C4FF6FE7635400584028CAC
:100930008388048B4FF68F752C40B51E2C400D8894
:100940002C43751E2A400D892A434D882A43144D95
:10095000A8420BD0134DA84208D0134DA84205D091
:10096000124DA84202D0124DA84213D14FF6F7758E
:100970002A404D892A434FF6FB752A408D882A4329
:100980004FF6FF652B404FF6FF552B408D892B43CB
:10099000CD892B4383800483CD888586028470BDF6
:1009A000002C01400034014000400140004401405F
:1009B000004801400021018041808180C180018187
:1009C00041818181C1817047818670470022028800
:1009D0001D4B98420ED01D4B98420BD0B0F1804F6A
:1009E00008D01B4B984205D01A4B984202D01A4BA4
:1009F000984204D14FF68F731A404B881A43174B15
:100A0000984207D0164B984204D04FF6FF431A4045
:100A1000CB881A4302808B8883850B8803850A4B19
:100A200098420BD0094B984208D00E4B984205D003
:100A30000D4B984202D00D4B984201D10B7A0386A0
:100A40000123838270470000002C014000340140E4
:100A50000004004000080040000C0040001000406E
:100A600000140040004001400044014000480140A3
:100A700021B1828942F40052828104E082894DF6DC
:100A8000FF731A40828170472DE9F04786B0054612
:100A90000E460024A24600BFA1460027B08900B13F
:100AA00000BF2F462C8A4CF6FF700440F0880443A8
:100AB0002C82AC894EF6F3100440B088318908438B
:100AC000718908430443AC81AC8A4FF6FF4004406F
:100AD000B0890443AC8201A8FFF7C6FD1F488742D6
:100AE00002D1DDF810A001E0DDF80CA0A88900F427
:100AF000004040B10AEBCA0000EB0A10316849001F
:100B0000B0FBF1F807E00AEBCA0000EB0A1031680D
:100B10008900B0FBF1F86420B8FBF0F00401200973
:100B2000642101FB1089A88900F4004040B1322003
:100B300000EBC900B0FBF1F000F00700044308E04F
:100B4000322000EB09106421B0FBF1F000F00F003F
:100B500004432C8106B0BDE8F08700000038014056
:100B600000BFFEE70021002200BF05E0002200E0F8
:100B7000521C782AFCD3491C8142F7D370470000ED
:100B800008B501210420FFF75FFD10208DF8030058
:100B90001D20ADF8000003208DF8020069460248D0
:100BA000FFF74FFC08BD000000080140FFF7DCFC28
:100BB000FFF7E6FFFFF7F2FBFFF7C2FD3220FFF77A
:100BC0001DFD0AE06420FFF7CDFF04210348FFF775
:100BD000C3FC01210148FFF7BFFCF3E70008014017
:100BE000000C00080000002014000000280100088C
:100BF000140C0008140000206406000044010008E2
:100C000000000000010203040102030406070809B2
:040C100002040608CC
:04000005080000ED02
:00000001FF
